:1000000000300020ED2C00007F2F0000812F000029
:1000100000000000000000000000000000000000E0
:10002000000000000000000000000000832F00001E
:100030000000000000000000852F00005F1E00008F
:100040005D2F00005D2F00005D2F00005D2F000080
:100050005D2F00005D2F00005D2F00005D2F000070
:10006000152F00001D2F0000252F00002D2F000050
:10007000352F00003D2F00006D2B00005D2F00008C
:100080005D2F00005D2F00005D2F0000A523000004
:10009000452F00005D2F00005D2F00005D2F000048
:1000A0005D2F00005D2F00005D2F00005D2F000020
:1000B0005D2F00005D2F00004D2F0000552F000028
:1000C000F446002804D4494200F013F84042604747
:1000D0004042002905D45FD000F00BF8404249426D
:1000E0006047494200F005F84942604703460B4328
:1000F000E6D40022030A8B420BD203098B4219D2A9
:1001000043088B422ED2411A00D20146524110467A
:100110007047FF2209023FD012068B4205D312120C
:1001200009028B4201D31212090203098B4219D32F
:1001300000E0090AC3098B4201D3CB01C01A524126
:1001400083098B4201D38B01C01A524143098B4270
:1001500001D34B01C01A524103098B4201D30B0159
:10016000C01A5241C3088B4201D3CB00C01A52417E
:1001700083088B4201D38B00C01A524143088B4243
:1001800001D34B00C01A5241884200D3401A524159
:10019000CFD201461046704708B500F04FFD08BDAC
:10040000FFFFFFFFFFFFFFFFFFFFFFFFFFFFFEFFFD
:100410007CB506000D0014002000C0B200280CD1ED
:10042000154800886946488000AA921C2900C9B274
:100430003000C0B200F00EFB0EE02000C0B2012878
:100440000AD10E480088694608806A462900C9B268
:100450003000C0B200F0FEFA73BD38B505000C00E4
:1004600007480088694608806A462100C9B228000A
:10047000C0B200F0EFFA31BD782F00007A2F0000F3
:100480007C2F000038B505000C0001222100C9B204
:100490002800C0B200F03EFB31BD38B505000C00AD
:1004A00000222100C9B22800C0B200F033FB31BDE8
:1004B00038B505000C0001222100C9B22800C0B2E5
:1004C00000F028FB31BD38B505000C0000222100EA
:1004D000C9B22800C0B200F01DFB31BD38B5040020
:1004E0000D002900C9B22000C0B200F051FB32BD9E
:1004F00080B50021009100910099814204D200BF93
:100500000099491C0091F7E701BD70B50500102660
:100510002800C0B23100FFF7E9FD0A21484304007A
:10052000EDB228003100FFF7E1FD20004018C0B215
:1005300070BDF8B506000D001400069F01222900C9
:100540003000C0B2FFF764FF00992000C0B2FFF78F
:1005500084FF29003000C0B2FFF794FF3800FFF796
:10056000C7FF00992000C0B2FFF7A2FFF1BDF8B5A8
:1005700006000D001700069C012229003000C0B2C1
:10058000FFF746FF2000FFF7B3FF29003000C0B29D
:10059000FFF778FF2000FFF7ABFF00993800C0B2EB
:1005A000FFF786FF2000FFF7A3FF29003000C0B24D
:1005B000FFF773FF2000FFF79BFF00993800C0B2E0
:1005C000FFF781FF2000FFF793FFF1BDF8B50600AC
:1005D0000D001700069C012229003000C0B2FFF771
:1005E00017FF2000FFF784FF29003000C0B2FFF79B
:1005F00054FF2000FFF77CFF00993800C0B2FFF7DE
:1006000057FF2000FFF774FF29003000C0B2FFF74A
:1006100039FF2000FFF76CFFF1BDFBB51700089E06
:10062000099C0122019968460078FFF7F1FE30002D
:10063000FFF75EFF00252800C0B208281FDA200659
:1006400005D4019968460078FFF727FF04E0019977
:1006500068460078FFF716FF02993800C0B2FFF72E
:1006600027FF3000FFF744FF02993800C0B2FFF7C0
:100670002AFF64003000FFF73BFF6D1CDBE70199A8
:1006800068460078FFF709FF02993800C0B2FFF70B
:100690000FFF3000FFF72CFF02993800C0B2FFF7C0
:1006A00012FF3000FFF724FFF7BDFDB50F00089ED5
:1006B00000252C000122390068460078FFF7A8FECB
:1006C0003000FFF715FF390068460078FFF7DAFEC3
:1006D0000022390068460078FFF79AFE3000FFF7E5
:1006E00007FF2800C0B208281CDA02996846007982
:1006F000FFF7DEFE3000FFF7FBFE640039006846BE
:100700000078FFF7EBFE002802D02000012404430C
:10071000029968460079FFF7D6FE3000FFF7E8FE41
:100720006D1CDEE70122390068460078FFF770FE95
:1007300009A80078012805D1390068460078FFF73C
:10074000ACFE04E0390068460078FFF79BFE029992
:1007500068460079FFF7ACFE3000FFF7C9FE02994A
:1007600068460079FFF7AFFE3000FFF7C1FE2000BA
:10077000C0B2FEBDF1B582B00F0016001D00089C8E
:1007800000942B003200D2B239006846007AFFF79D
:10079000EEFED020019000942B003200D2B239003E
:1007A0006846007AFFF739FF09A8007801900094A5
:1007B0002B003200D2B239006846007AFFF72DFFD5
:1007C00000942B003200D2B239006846007AFFF75D
:1007D000CEFED120019000942B003200D2B239001D
:1007E0006846007AFFF719FF0020019000942B0063
:1007F0003200D2B239006846007AFFF756FF6946E8
:10080000087100942B003200D2B239006846007A99
:10081000FFF7DCFE68460079FEBDF1B582B00F003F
:1008200016001D00089C00942B003200D2B2390043
:100830006846007AFFF79BFED020019000942B00C1
:100840003200D2B239006846007AFFF7E6FE09A806
:100850000078019000942B003200D2B23900684633
:10086000007AFFF7DAFE0AA80078019000942B00C6
:100870003200D2B239006846007AFFF7CEFE00940B
:100880002B003200D2B239006846007AFFF79EFE94
:10089000F7BDF7B584B01F000C9D0D9C00200190A2
:1008A00000942B003A00D2B206996846007DFFF70B
:1008B00061FF694608720120019000942B003A0004
:1008C000D2B206996846007DFFF754FF02A948702E
:1008D0000220019000942B003A00D2B2069968469B
:1008E000007DFFF747FF02A9887003200190009464
:1008F0002B003A00D2B206996846007DFFF73AFF16
:1009000002A9C8700420019000942B003A00D2B2D2
:1009100006996846007DFFF72DFF02A908710520A2
:10092000019000942B003A00D2B206996846007DEF
:10093000FFF720FF02A948710620019000942B00C8
:100940003A00D2B206996846007DFFF713FF02A96C
:1009500088717F266946082008563040C0B2FFF7EC
:10096000D4FD6946087202A80121405606403000B5
:10097000C0B2FFF7CAFD02A948703F2602A80221B3
:1009800040563040C0B2FFF7C0FD02A9887002A8EF
:10099000C0784007400FFFF7B8FD02A9C87002A851
:1009A0000421405606403000C0B2FFF7AEFD02A958
:1009B000087102A84079C006C00EFFF7A6FD02A983
:1009C000487102A88079C0B2FFF79FFD02A9887123
:1009D000049802A9072200F015F907B0F0BDF1B59F
:1009E00084B00F0016001D000A9C202002900820F1
:1009F000019000942B003200D2B239006846007C8E
:100A0000FFF70BFF452002900920019000942B0076
:100A10003200D2B239006846007CFFF7FEFE05B016
:100A2000F0BDF1B582B00F0016001D00089C0094C7
:100A30002B003200D2B239006846007AFFF779FD08
:100A400000942B003200D2B239006846007AFFF7DA
:100A5000C6FFF7BDF8B507000C001600002E06D142
:100A600051225849584800F0DBF800BF00BF380059
:100A7000C0B2800869464870B807800F69460870A0
:100A80005248694649780422514345583078002835
:100A90001CD101236A692000C0B2844668460178EF
:100AA00008204143604641181800884082436A612B
:100AB000AA692000C0B284466846017808204143F4
:100AC0006046401883409A43AA6122E07278210070
:100AD000C9B23800C0B200F01DF801236A692000D5
:100AE000C0B28446684601780820414360464118F8
:100AF0001800884010436861AA692000C0B284468B
:100B000068460178082041436046401883401343FB
:100B1000AB61F1BDF4B50200D2B2920883079B0F1E
:100B20002A4C1500EDB20426754364596D462D78A4
:100B3000002D0CD101270D00EDB2AC461E00F6B21F
:100B400008256E436546AD19AF40A7600BE001274D
:100B50000D00EDB2AC461E00F6B208256E436546A8
:100B6000AD19AF406760F1BD70B40200D2B2920817
:100B700083079B0F154C1500EDB20426754364598D
:100B80000D00EDB208265E43B540E56070BC7047CD
:100B900070B402001000C0B283089007800F0B4CA5
:100BA0001D00EDB20426754364592469C9B2C0B270
:100BB000082568430818C4402000C007C00F70BC57
:100BC000704700003C2A0000FC2E0000AC2E000004
:100BD00070B4103A03D378C9103A78C0FBD25307E7
:100BE00001D318C918C001D508C908C0D20704D359
:100BF0000B880380891C801C002A01D50B780370A8
:100C000070BC70478B0701D18307E1D0124205D039
:100C10000B78491C0370401C521EF9D1704701002B
:100C200070B506000D00140023002A0031000248B0
:100C300000F006F800BEFDE7442C000070470100FC
:100C40000EB478B50500002605AC2100280000F0A0
:100C500005F801B0039970BC04B0084770B50500F1
:100C60000C0000260D48007C002802D10020C04363
:100C700004E0220029000A4800F061F870BD01B5C7
:100C80000648017C002902D10020C04304E0012273
:100C9000694683689847012002BD00000CF0FF1FE1
:100CA0007F0C0000F7B504001F00089D019E02980C
:100CB000864207DA2000C0B2A8473868401C386076
:100CC000761CF4E7F7BDFBB586B000200700069957
:100CD00003000B704C1C05900490039002900100DF
:100CE00000900500019007980668002E04D130207E
:100CF00020707F1C380020E0002E1DD030000899A5
:100D0000FFF7F7F90090009808994843301A0A282D
:100D100002D20500303508E00EA90978002901D07B
:100D2000412100E0612145180A3D00980600280095
:100D30002070641C7F1CDFE7380009B0F0BDF3B5FC
:100D400097B014000020049000200390002002902F
:100D500000206946487100200590189E30780028D0
:100D600001D1029863E1307805002800C0B225283F
:100D700008D02800C0B2179988470298401C0290FA
:100D8000761CEBE7012001006A4691710021069173
:100D900000216A46117169460979002918D1761C2B
:100DA00031780D002900C9B230290CDB2900C9B205
:100DB0003A2908DA06990A2251432A00D2B2891840
:100DC00030390691E7E7761E01006A461171E2E7C5
:100DD000711C0A782E2A21D10022079200226B462C
:100DE0001A716A461279002A19D1491C0A7815002D
:100DF0002A00D2B2302A0CDB2A00D2B23A2A08DA10
:100E0000079A0A235A432B00DBB2D218303A0792D2
:100E1000E7E7491E02006B461A71E2E7491E481CCB
:100E20000A900A98007805002800C0B2642824D0EF
:100E30002800C0B2692820D02800C0B266281CD083
:100E40002800C0B2462818D02800C0B2782814D094
:100E50002800C0B2582810D02800C0B26F280CD08B
:100E60002800C0B2622808D02800C0B2702804D080
:100E70002800C0B2752800D0A1E02800C0B26428C4
:100E800003D02800C0B2692810D12068241D089022
:100E90006846807900900A23012208A90DA8FFF76F
:100EA00012FF03900DA80399401804902800C0B2C7
:100EB000582803D02800C0B2782817D12800C0B223
:100EC000782802D10020694688712068241D059089
:100ED0006846807900901023002205A90DA8FFF72D
:100EE000F2FE03900DA80399401804902800C0B2A8
:100EF0006F280BD02800C0B2622807D02800C0B2EB
:100F0000702803D02800C0B275283ED12800C0B296
:100F100070280DD12068241D009004200C90684694
:100F20000B9005AE0C9A0B993000FFF76BFE02E0B8
:100F30002068241D05902800C0B262280AD06F28BE
:100F400004D070280AD075280CD00FE0082069461C
:100F500048710BE002206946487107E0102069469D
:100F6000487103E00A2069464871FFE768468079C6
:100F7000009068464379002205A90DA8FFF7A3FE5B
:100F800003900DA80399401804901798009002ABA5
:100F9000069A03992020FFF785FE0498002843D085
:100FA0000498007800283FD0049800781799884763
:100FB0000498401E04900298401C0290F0E728001C
:100FC000C0B2632809D12068241D09900998179997
:100FD00088470298401C029026E02800C0B273287F
:100FE0001BD12068241D0700002F1DD0380000F001
:100FF00021F803901798009002AB069A03992020DD
:10100000FFF750FE387800280ED0387817998847B7
:101010007F1C0298401C0290F4E72800C0B2179988
:1010200088470298401C02900A98461C96E619B020
:10103000F0BD0100431C0178401C0942FBD1C01ADD
:1010400070477FB505000124260000220021002002
:10105000FFF760FD012201210020FFF75BFD6846DC
:101060008470684600F021FA022000F019FC0200AA
:101070006946280000F034FA3000C0B204B070BDF8
:1010800038B5050001242800C0B2002805D100228F
:1010900003210820FFF73EFD0BE02800C0B2012825
:1010A00005D1012203210820FFF734FD01E00020D3
:1010B00004002000C0B232BD12B585B0040000208B
:1010C0006946087001A8102100F0D2FC05A8019023
:1010D000684602900120039001A9200000F0AEFABA
:1010E0006846007806B010BD38B504000125002020
:1010F000FFF7C6FF06212000FFF7DEFF0120FFF704
:10110000BFFF2800C0B232BDF8B506000124270099
:1011100000250020FFF7B4FF05213000FFF7CCFFCA
:10112000A5213000FFF7C8FF05002800C0B220400D
:101130000028F5D10120FFF7A3FF3800C0B2F2BDAF
:1011400070B504000D0001262000FFF7CDFF002040
:10115000FFF796FF20212000FFF7AEFF2900090CC2
:10116000C9B22000FFF7A8FF290AC9B22000FFF783
:10117000A3FF2900C9B22000FFF79EFF0120FFF75F
:101180007FFF2000FFF7C0FF3000C0B270BDF8B590
:1011900084B004000E00170001252000FFF7A4FF13
:1011A0000020FFF76DFF02212000FFF785FF3900C7
:1011B000090CC9B22000FFF77FFF390AC9B220002D
:1011C000FFF77AFF3900C9B22000FFF775FF6846C4
:1011D000102100F04DFC0096002001906846008A26
:1011E00002906946200000F029FA0120FFF748FF2D
:1011F0002000FFF789FF2800C0B205B0F0BDF9B5A7
:1012000083B00D0014000120694608710020010020
:101210006A46517101006A46517001006A46917038
:1012200001006A4611706946C870200069468870DE
:10123000002069468978401A6946087080277F0037
:101240006846008A3900FEF751FF06006846008AAA
:101250003900FEF74BFF68464170684680780028E9
:1012600025D13000C0B2002807D16846038A220089
:1012700029000398FFF78BFF88E03000461EC0B2BC
:1012800000280BD038000300220029000398FFF744
:101290007EFFE419802040002D18EEE76846437871
:1012A0009BB2220029000398FFF771FF6EE0300027
:1012B000C0B200282BD16846007869464978884238
:1012C0001DD26846407869460978401A6946C87058
:1012D000684603789BB2220029000398FFF757FF66
:1012E000684600782418684600782D186846C37848
:1012F0009BB2220029000398FFF749FF46E06846A9
:10130000038A220029000398FFF741FF3EE0684668
:10131000008A69460978401A694608826846008A48
:101320003900FEF7E3FE06006846008A3900FEF742
:10133000DDFE68464170684603789BB222002900B2
:101340000398FFF724FF6846007824186846007861
:101350002D183000461EC0B200280BD03800030004
:10136000220029000398FFF712FFE41980204000B3
:101370002D18EEE768464078002807D06846437885
:101380009BB2220029000398FFF701FF684600790D
:1013900005B0F0BDF8B584B004000E0017000125BB
:1013A0000020FFF76DFE03212000FFF785FE3900C6
:1013B000090CC9B22000FFF77FFE390AC9B220002C
:1013C000FFF77AFE3900C9B22000FFF775FE6846C4
:1013D000102100F04DFB0020009001966846008A25
:1013E00002906946200000F029F90120FFF748FE2D
:1013F0002800C0B205B0F0BD010C684A89180A681F
:101400000123834013430B60704738B50500002467
:10141000022C07D26248042161434058A84201D0FF
:10142000641CF5E7022C06D384225E495E48FFF770
:10143000F7FB00BF00BF200032BD38B505000C002F
:101440002800FFF7E2FF59490C5431BDF4B50500FF
:101450000C00002601272800FFF7D7FF00998E42D5
:101460000CD2002C03D021786971641C02E04F4932
:10147000095C69713900C9B27618EFE7F1BDF4B5BE
:1014800005000C0000260127009886420CD2002C93
:1014900003D068792070641C02E0280000F0C9F8CD
:1014A0003800C0B23618EFE7F1BDF8B504000C25DE
:1014B000002600962700009A2900380000F0C8FA9C
:1014C00001202070300060703000A0703000E070AB
:1014D00030002071A671032060713548A060F1BD15
:1014E000F8B505000C001600002C01D0002E07D125
:1014F000FF22C0322B497348FFF792FB00BF00BFA9
:101500002800FFF782FF7049042250430858FFF774
:1015100073FF2878BF210140297008220120102183
:10152000A378DB0017001F40BC46E3789B0004272C
:101530003B4067463B439C4663795F0002231F4064
:1015400063461F43BC46277903003B4067463B4345
:101550000B432B706379DBB25B081B011940A37945
:10156000DBB25B08DB001A400A4361784900114393
:10157000A2791040084368703200A168280000F08A
:1015800019F8FF212800FFF758FF2078002803D022
:101590002878402101432970F1BD000000800440FB
:1015A000042F0000B42A0000782A000078F3FF1FFF
:1015B00020A10700F7B585B0069802900026F643F3
:1015C00007200490082003900027082F25D2002E22
:1015D00023D00220050000200400092C1BD2002E7D
:1015E00019D007983900491C6943FEF782FD019024
:1015F0000298019988420AD302980199401A0090F2
:101600000098B04203D20098060004970394022089
:101610004543641CE1E77F1CD7E703980007000FF0
:101620000499090170220A4002430598827008B0AB
:10163000F0BD01000022487980B2704770B5050006
:101640000C00002C07D1E522920020492048FFF72A
:10165000E7FA00BF00BF01262068002804D16068B7
:10166000002801D104202BE0A068002827D0E878CA
:101670008006FCD53200D2B221682800FFF7E6FED2
:101680002068002804D020683100C9B240182060CA
:10169000E8780006FCD53200D2B261682800FFF776
:1016A000EEFE6068002804D060683100C9B24018BE
:1016B0006060A0683100C9B2401AA060D4E7002081
:1016C00070BD00009C2C00000C2F0000B42A00000C
:1016D000B82E000038B504000D002078C00608D5EB
:1016E0001C4804216943415820001B4A1268904756
:1016F00007E018480421694341582000144A126841
:10170000904731BD80B513480068002806D1134AC0
:101710000E491348FFF784FA00BF00BF00211148AB
:10172000FFF7D8FF01BD000080B50A4840680028D7
:1017300006D10D4A05490D48FFF772FA00BF00BFF8
:1017400001210B48FFF7C6FF01BD0000B42A0000CD
:10175000ACF0FF1FA0F0FF1FA8F0FF1FDA0500008C
:10176000382E000000600740E30500004C2E00000A
:101770000070074030B40307C024A4051C400B06CA
:1017800080256D042B402343140580256D032C40D8
:101790001C438C4B1C6030BC704710B57F4C2068DC
:1017A000002806D169227E498848FFF739FA00BF30
:1017B00000BF206810BD10B5FFF7EFFF002820D054
:1017C00081490978C9B2C9084907490FC840804A08
:1017D00012781300DBB29B081A00D207D20F130055
:1017E000DBB2002B0DD00B00DBB2002B052B03D995
:1017F0009B1F012B02D902E0400902E001E0002317
:10180000180010BD80B573480078C0B20100C90649
:10181000C90F002902D1FFF7CEFF01E06E48006832
:1018200002BD10B56A48007800060CD55B4C2068F4
:10183000002806D1CC225A496448FFF7F1F900BFCD
:1018400000BF206800E0002010BD10B500F06CF86B
:101850005C4C2168090F8907890F491CFEF749FC78
:1018600022681100C901C90F491CFEF742FC10BDD6
:1018700080B500F059F853490968090F8907890FA5
:10188000491CFEF736FC02BD80B500F04DF84D490D
:101890000A681100C902C90F491CFEF72AFC02BDE3
:1018A00010B504002000C0B200280FD0022810D0CC
:1018B0000CD3042810D00CD3062810D012D308283B
:1018C00016D012D30A2819D015D31AE0FFF7D0FF8B
:1018D00018E0FFF7BAFF15E0FFF7A3FF12E000F0F2
:1018E00052F80FE000F05EF80CE000F03FF809E07D
:1018F00000F01AF806E0FFF7C7FF03E0FA208000C7
:1019000000E0002010BD10B50400A27861782078B6
:10191000FFF730FF46480168E2781204E023DB025B
:1019200013400B43036010BD10B52A480078C0B2C5
:1019300080088407A40F2000C0B2002803D002282A
:1019400007D003D308E000F011F806E02248006851
:1019500003E0FFF722FF00E000200121354A127862
:10196000D2B252099140FEF7C4FB10BD80B5314898
:101970000078C00601D5002004E0FFF743FFA02156
:10198000C900484302BD00B50F480078800701D464
:10199000002001E02548006800BD000008F0FF1F9E
:1019A000C429000010B5FFF72DFF0400FFF7BCFFAE
:1019B0000100002C04D08808A04201D3200000E0E0
:1019C000002010BD2480044000400640702E00001E
:1019D000005006400440064000F0FF1F00B5010023
:1019E0001A48027804231343037002789206920E79
:1019F000027010480278D206D20E4B0113430370D6
:101A0000114802781300DB06DB0F002BF8D00278B8
:101A100092089207920F002AF9D102785206FCD55B
:101A20000278802313430370002000BD00F0FF1FE5
:101A3000048004400140064010B504002000C0B2FC
:101A4000FFF7CCFF10BD00000440064000400640F8
:101A50001206130A1A43130C1A4300BF094205D099
:101A6000830707D00270401C491EF9D1704700005F
:101A70000022FFE71300103906D330B4140015001C
:101A800010393CC0FCD230BC490700D30CC000D593
:101A900004C0890002D30280801C002900D5027096
:101AA00070470100010C964A89180A680123834097
:101AB00013430B60704770B5060003250024AC4249
:101AC00007D29048042161434058B04201D0641CC1
:101AD000F5E7AC4206D350228B498C48FFF7A0F8BB
:101AE00000BF00BF200070BDF0B502000B00002554
:101AF00029002E002F00906D08240443506E290009
:101B0000C9B204290AD201212E00F6B208277E4369
:101B1000761DB140014308006D1CF0E750668C2132
:101B20005658B42131431E0603D50800F821490157
:101B3000014370201840002815D00800F8214903FF
:101B400001431020034202D0260004003443202029
:101B5000034202D02600040034434020034202D056
:101B600026000400344394658C201150F0BDFEB56E
:101B700004000F000026019600960825280040B2B8
:101B80000021C943884206D198225F496048FFF787
:101B900047F800BF00BF8C202058042101438C204F
:101BA0002150606E290049B249088E4208D20121B5
:101BB00008227243521D914001430800761CF1E750
:101BC00060669821625801210B00AB405B1E9A436E
:101BD0000B00AB405B1E3B4013430093009A9823DD
:101BE000E250A26DFB0503D502201043020001E084
:101BF00002208243B80502D511430A0001E001200A
:101C00008243A265F7BD38B505000C00002C06D153
:101C1000DF223D493F48FFF703F800BF00BF2079AE
:101C2000F0210140002901D101203DE02800FFF70B
:101C300042FF3949042250430858FFF733FF207B05
:101C40004001602101400520084368656168280063
:101C5000FFF74AFFA1682800FFF789FF20784007B7
:101C6000400F2860C020617889010140A27E5202A5
:101C70000A4384216A50217EE965617E2967616992
:101C8000E966A17B89010840217C8906890E014310
:101C9000A966E86F21490140607B0002F022120131
:101CA00002400A43EA67002032BDF8B50400002C68
:101CB00007D1FF22663214491948FEF7B1FF00BF71
:101CC00000BF1C25002600962700009A2900380036
:101CD000FFF7BEFE30002070300060708020606032
:101CE000A66030002073300060730120A07326616D
:101CF00066613000207630006076A676F1BD000087
:101D000000800440942E0000002A0000C82D00002E
:101D1000602E0000F42E0000A02E0000FFF0FFFF58
:101D2000882E000070B5CAB200238C0503D5046864
:101D3000402525430560CC0503D5446D802525430A
:101D40004565002A12D0D4070DD51C00E4B2082541
:101D50006C430419E56840242C431D00EDB20826AD
:101D600075434519EC605B1C5208EAE770BD00B58D
:101D70008A0503D5026880239A430260CA0503D509
:101D8000426F80239A4342674A0503D5C26E80237F
:101D90009A43C266026DCBB29A43026500BD010050
:101DA000F0B5020052B2002A1CD40322A54B040055
:101DB00064B2A40804256C431C59FF251600064094
:101DC00008277E43B540AC438D01EDB202400826A2
:101DD000724395402543020052B2920804246243A4
:101DE0009D5022E00F24984A032305006DB2254040
:101DF000083DAD0804267543060076B23440083C21
:101E0000A408042674431659FF27BC461C0004404E
:101E100008277C436746A740BE438C01E4B20340D9
:101E200008277B439C4034435451F0BD10B5040057
:101E3000601E80214904884201D301200EE0601E0B
:101E40008249086003210020C043FFF7A9FF00205A
:101E50007F49086007207F490860002010BD00B559
:101E60007D480168002902D00168491E016000BD5B
:101E700000B5794908600A68002AFCD100BDF8B5B0
:101E800000F043F800F047F8744C00947448006880
:101E9000FA218900FEF72DF9FFF7C8FF002800D0CE
:101EA000FEE7704EC025ED0301232A00E11D30003E
:101EB000FFF770FA2700083701232A0039003000A5
:101EC000FFF768FA01232A0039003000FFF762FAB1
:101ED000E079012805D0207A012802D0607A012813
:101EE00002D100F08EF801E000F0A5F85E4C2078F9
:101EF000002808D000980068401C0099086000F095
:101F000034F80020207030BFF0E780B500F0C2F850
:101F100000F074F901BD80B532221321534800F05E
:101F2000EFF9962292010E21514800F077FA4D48C0
:101F3000FFF787F8142000900123042200210420D9
:101F4000FEF76FFD01BD1FB50400142001900120B4
:101F5000009004230022042102A8FEF79AFC20002E
:101F600002A90722FEF74EFE1FBD10B52021022058
:101F7000FEF7FAFD40210420FEF7F6FD3D48FFF78D
:101F8000E2FF3D4C2078052816D1012203210420D0
:101F9000FEF7C0FD0520FFF76BFF092237493448E3
:101FA00000F05EFB0520FFF763FF00220321042001
:101FB000FEF7B0FD002020702078062809D1092303
:101FC000C022D2032D492748FFF719F900202070BD
:101FD00016E02078072807D1C021C9032148FFF760
:101FE000AFF8002020700BE02078082808D10923E2
:101FF000C022D20322491B48FFF7CCF900202070F1
:1020000010BDF8B5382700251E4C26002A003900DF
:102010003000FFF71DFD1C4A2621200000F0C4FB04
:102020001A4E200000F04EFB30603068002801D0CE
:1020300000F002F8F1BD704780B51548FEF700FECC
:10204000FEE7000000E400E01CED00E014E000E02A
:1020500018E000E010E000E0FCF0FF1F6CF3FF1F51
:1020600004F0FF1F007007407AF3FF1F00A0034039
:1020700000C0064000F3FF1F7BF3FF1FE82E0000A7
:1020800000F1FF1FC0F0FF1F002D3101F8F0FF1F0E
:10209000702C000080B500F007F800F02DF800F07B
:1020A0003AF800F05AF801BDE0B5404800886946AA
:1020B000C88001AA921C05210220FEF7CBFC3C48F7
:1020C00000886946888001AA06210420FEF7C2FC28
:1020D000384800886946488000AA921C00210720E1
:1020E000FEF7B8FC34480088694608806A4601213A
:1020F0000720FEF7AFFC07BD80B530480088694671
:1021000008806A4603210420FEF7A4FC01212C4824
:1021100000F09EFB01BDE0B52A4800886946888032
:1021200001AA00210020FEF795FC27480088694697
:10213000488000AA921C01210020FEF78BFC234856
:102140000088694608806A4603210820FEF782FC61
:1021500001211F4800F07CFB07BDE0B51D48008849
:102160006946C88001AA921C02210020FEF772FC79
:10217000194800886946888001AA03210020FEF7DB
:1021800069FC164800886946488000AA921C002114
:102190000420FEF75FFC12480088694608806A4602
:1021A00001210420FEF756FC07BD00001E0C0000B4
:1021B0003E0C000032100000A21A00009E1D00001C
:1021C0002D0002007229000076290000C2290000BB
:1021D0002B0002008A2D0000962D0000742F0000B5
:1021E000762F0000802040040F49086070470F4997
:1021F0000A78FC23134003430B70704780B500F04E
:1022000001F801BD10B5FFF7EDFF094CE078FFF7CD
:1022100013FC6078FFF7EBFF0648FFF774FB0648F6
:102220000649086010BD00002480044000400640BC
:102230006C2F0000702F0000006CDC0204F0FF1F08
:1022400000B5010049B2002905D40121C206D20E11
:1022500091405A4A116000BD38B5040000252000A5
:102260007F21C94340B2884202D10120050003E02A
:10227000200040B2FFF7E4FF280032BDF1B50D00A9
:1022800014006008854207D3DD2252004C494D48B6
:10229000FEF7C6FC00BF00BF4B4EE0093100FDF762
:1022A00028FF854207D2FF22BC3245494748FEF746
:1022B000B7FC00BF00BF00273800C0B207280BD210
:1022C00020000121B940FDF714FF3100FDF711FF97
:1022D000A84201D37F1CEFE73800C0B2F2BD002254
:1022E000C2648160704710B4026818239A430B00DF
:1022F000DBB2DC00182323401343036010BC70479B
:10230000F2B58AB006001500012420006946087263
:1023100003A8FFF7CAFC0920FFF7C2FAFA27BF009B
:10232000020000922A4829007943FDF7E2FE0100ED
:10233000009A3000FFF7A2FF6946087303A9300036
:10234000FFF761FC0920FFF7ABFA02003800684391
:1023500000210090019110006946097B8C4021000A
:10236000FDF7C7FE020000230098019900F0AAFAC9
:10237000174A002300F0BFFA01003000FFF7AFFF5B
:10238000802189003000FFF7CDFC694628200856DF
:10239000FFF762FF01213000FFF7A5FF6846007AD2
:1023A0000BB0F0BD80B5802189000A48FFF7DFFC43
:1023B000012009490870BFF34F8F01BD00E100E023
:1023C0002C2B0000C42C0000FFFF0000E02B0000BD
:1023D00040420F0000A003407AF3FF1F00B5010048
:1023E00049B2002905D40121C206D20E9140014A0A
:1023F000116000BD00E100E038B5040000252000B8
:102400007F21C94340B2884202D10120050003E088
:10241000200040B2FFF7E2FF280032BDF8B584B0DB
:1024200004000F00150001266846067001A800F0A0
:10243000D2F8019501A8C67106720220FFF730FAA2
:10244000020001A9200000F02FF8822109032000DA
:1024500000F0EAF8380040B2FFF7CEFF6846007897
:1024600005B0F0BD010C6D4A89180A68012383404C
:1024700013430B60704770B5060003250024AC427F
:1024800007D26748042161434058B04201D0641C20
:10249000F5E7AC4206D38E2262496B48FEF7C0FBDB
:1024A00000BF00BF200070BDFEB506000D00170084
:1024B000002D06D1D7225B496748FEF7B1FB00BF6C
:1024C00000BF2868002806D1D82256496348FEF785
:1024D000A7FB00BF00BF0020009001006A461172F8
:1024E00001903800296810225143FDF702FE0400D4
:1024F000002C01D101200400380010216143FDF7B8
:10250000F8FD2968401A01902968009138002100DF
:10251000491C10225143FDF7ECFD0099081A01995E
:1025200088420CD22968009138002100491C1022F1
:102530005143FDF7DEFD0099081A0190641C2868DC
:102540006421FDF7D6FD032148430199884201D259
:102550004C483FE03000FFF78EFF4B4904225043C8
:102560000858FFF77FFFF078F3210140F1703078D1
:10257000E0210140200A0843307020007070B078DC
:10258000E82202400420A9798B0001001940114380
:102590002A79002A03D02A790A4310211143B17005
:1025A0003278DF2313409C466A79520120231A4077
:1025B00063461A433270F278EB79002B02D0110097
:1025C00008220A43297A002902D0110002000A4396
:1025D000F2700020FEBDF8B50400002C07D1FF22E8
:1025E000903210491C48FEF71BFB00BF00BF0C25B2
:1025F000002600962700009A29003800FFF728FAE5
:10260000E120400220603000207130006071300015
:10261000A0713000E0712672F1BD0000008004401E
:10262000D02E0000F02A0000184A0A40017813005A
:102630000B430370C178130A0B43C37081791300F5
:102640001B0C0B4383717047E42D000001000A79D5
:102650004879000210437047C42E0000002E00008D
:1026600000B503001000421E002806D018790006AD
:10267000FCD50878D871491CF4E718794006FCD5D8
:10268000002000BDF5030000DC2E0000C0F00F00AC
:1026900080B5084801680848084A1268904701BD9B
:1026A000000080B5034841680548044A1268904715
:1026B00001BD0000B0F0FF1F00A00640BCF0FF1FEE
:1026C00000B00640F8B50400002C01D104204AE017
:1026D000606A3049FDF70DFD05006D1E2E4801783A
:1026E000490614D42D490978090610D53F210278EE
:1026F000C02313400A002A401A43027000780840A1
:102700002A00D2B2114088420BD079202BE03F2121
:10271000007808402A00D2B21140884201D07920C6
:1027200021E0002626608020800260600120207267
:1027300080208000E0602661200000F074F800280E
:102740000FD0E662164820631648606320002C30E4
:102750006061200000F008F80700002F01D0380069
:1027600001E0A6620020F2BD38B5040025002C353A
:10277000002C02D06069002801D1042008E020006C
:1027800000F035F8200000F03FF80220286000201B
:1027900032BD000040420F0003000240050002402D
:1027A00020F0FF1F60F0FF1F30B503000024002B56
:1027B00001D104201AE00800C0B2002805280FD972
:1027C000213802D0401F09D00DE0002A03D0012A91
:1027D00001D077200AE01000987206E05A6204E007
:1027E0007620040001E06A200400200030BDF8B526
:1027F0000400206B00900C25134E009F2A0031002E
:102800003800FEF7FFF9F1BDF8B5040020003430C0
:1028100000901C250D4E009807682A0031003800F2
:10282000FEF7F0F9F1BD00B50100002901D1042047
:1028300009E04A694869002804D01068022801D1DB
:10284000002000E06D2000BD7C2E0000AC2D0000BB
:10285000F0B543095B075B0F164C044004281DDBF1
:1028600085030DD4144D2E6801279F407F1EA7407D
:10287000BE4332000E00F6B2A64016432E6017E0AB
:102880000E4D2E6801279F407F1EA740BE43320099
:102890000E00F6B2A64016432E6009E0084D2E68E1
:1028A00001278740BE430F00FFB2874037432F60A8
:1028B000F0BD00001FFFFDFF0C80044010800440AD
:1028C0000480044030B4434351435D18010C0C00B4
:1028D000130C5C432D1980B2434392B25143002440
:1028E000C918644124040B04090C09195043C01889
:1028F000694130BC704712422DD0994231D970B530
:1029000000251B4209D00C00002112E01100FDF748
:10291000F0FB0A000021002370BD0942F6D000241C
:10292000012649186441944200D3A41A7641F8D391
:102930003100012601E0764109D2001864416D4161
:10294000A41A9D41F7D2A4185D41B619F5D3300001
:1029500022002B0070BD1B42CFD108B500F00AF851
:1029600008BD01D19042CAD202000B000021002014
:10297000704701007047010080B50A480A4901808C
:102980000A4901800A480B4908800B48017849062A
:10299000490E20220A43027008480178017000F0B5
:1029A0000FF801BD02200540C5200000D928000015
:1029B000FFFF0000042005400020054001200540E5
:1029C00070470100433A5C55736572735C41646DF6
:1029D000696E204D315C4465736B746F705C436F3E
:1029E00064654E616D70745C424C445C64726976DF
:1029F0006572735C66736C5F636C6F636B2E6300F0
:102A0000433A5C55736572735C41646D696E204D29
:102A1000315C4465736B746F705C436F64654E61C9
:102A20006D70745C424C445C647269766572735C70
:102A300066736C5F66746D2E63000000433A5C55EC
:102A4000736572735C41646D696E204D315C4465E1
:102A5000736B746F705C436F64654E616D70745C12
:102A6000424C445C647269766572735C66736C5F39
:102A70006770696F2E630000696E7374616E6365C1
:102A8000203C202873697A656F6628735F737069CC
:102A9000426173657329202F2073697A656F6628F8
:102AA00028735F7370694261736573295B305D29B8
:102AB00029000000433A5C55736572735C41646D94
:102AC000696E204D315C4465736B746F705C436F4D
:102AD00064654E616D70745C424C445C64726976EE
:102AE0006572735C66736C5F7370692E63000000BF
:102AF000433A5C55736572735C41646D696E204D39
:102B0000315C4465736B746F705C436F64654E61D8
:102B10006D70745C424C445C647269766572735C7F
:102B200066736C5F756172742E630000433A5C5586
:102B3000736572735C41646D696E204D315C4465F0
:102B4000736B746F705C436F64654E616D70745C21
:102B5000424C442F647269766572735C66736C5F75
:102B600066746D2E68000000C079704738B50A4D54
:102B70002800FFF76BFD2821014000290AD028001A
:102B8000FFF7F2FF04000548054902788C540178EC
:102B9000491C017031BD000000C006407CF3FF1FDE
:102BA00008F3FF1F70B40123002413E00168001D27
:102BB000194202D04D466918491E0C60091D121FAA
:102BC000042AFAD20D00960701D50C80AD1C1A40DC
:102BD00000D02C700268001D002AE7D170BC70473D
:102BE00028737263436C6F636B5F487A202F2031C8
:102BF000323855202F203078464646465529203C0D
:102C00003D20636F756E746572506572696F645FA5
:102C1000487A000030B401220EE00368C31844680B
:102C20000830144202D04D462C19641E1D682560E0
:102C30001B1D241D091FF9D10168001D0029ECD1BD
:102C400030BC7047415353455254204552524F5265
:102C5000202220257320223A2066696C65202225D7
:102C60007322204C696E652022256422200A000010
:102C70000D0A0D0A0D0A092D2D2D2D2048414C5409
:102C800045442044554520544F20464C415348204C
:102C90004552524F5221202D2D2D2D0028636F6E4D
:102CA00066696720213D203029202626202873725E
:102CB00063436C6F636B5F487A20213D2030552958
:102CC0000000000028737263436C6F636B5F487A87
:102CD000202F20325529203E20636F756E74657257
:102CE000506572696F645F487A00000072B60548EB
:102CF000054901600A6882F308880448804762B683
:102D00000348004708ED00E00000000079290000BA
:102D10001D2E000010B5074979441831064C7C443B
:102D2000163404E0081D0A68891888470100A1428A
:102D3000F8D110BD080000002800000069FEFFFF68
:102D40007803000008F0FF1F00000000C9FEFFFF2D
:102D5000080000001002000000F0FF1F000000004B
:102D600000F00DF8002801D0FFF7D4FF00BF00BF2E
:102D7000002000BF00BFFFF782F800F002F801203A
:102D8000704780B500F002F801BD010007463846E3
:102D900000F002F8FBE7010080B500BF00BF024A67
:102DA00011001820ABBEFBE72600020010B5002979
:102DB00005D004688C439340194021430160BFF360
:102DC0006F8FBFF34F8F10BD696E7374616E636553
:102DD000203C2066746D4172726179436F756E7428
:102DE00000000000696E7374616E6365203C20759D
:102DF0006172744172726179436F756E7400000084
:102E0000636F6E6669672D3E6261756452617465B9
:102E10005F42707320213D20305500000548014677
:102E200003B4684680F3098800BF00BF00BF00BF3D
:102E3000FFF796FFA5EDF5FE735F73706948616E4D
:102E4000646C655B305D20213D203000735F7370E2
:102E50006948616E646C655B315D20213D20300006
:102E60002D3120213D2063686E6C436F756E7400B8
:102E7000675F7874616C3046726571008021017003
:102E800002780A42FCD07047636F6E666967202142
:102E90003D203000008003400090034000A003402C
:102EA00005001400060014000700140000F00F4095
:102EB00040F00F4080F00F407866657220213D2081
:102EC00030000000636F6E66696720213D2030008E
:102ED00000A0064000B0064000C0064014001400E8
:102EE00015001400160014007468616E68636D3379
:102EF00033000000636F6E6669670000636F6E6683
:102F0000696700000060074000700740120014006D
:102F100013001400004800475D2F000000480047E0
:102F20005D2F0000004800470517000000480047DB
:102F3000291700000048004791260000004800477C
:102F4000A3260000004800475D2F0000004800470E
:102F50005D2F0000004800475D2F0000004800473B
:102F60005D2F00007C92000000366E01000203001D
:102F70000001010001000100000001000100FEE766
:062F8000FEE7FEE7FEE79C
:0400000500002CEDDE
:00000001FF
